S0170000414443547261696E4C6F6361746F722E7372656373
S113000000800020850100006B0100006B010000EE
S113001000000000000000000000000000000000DC
S11300200000000000000000000000006B01000060
S113003000000000000000006B010000D901000076
S11300406B0100006B0100006B0100006B010000FC
S11300506B0100006B0100006B01000071010000E6
S11300606B010000B51600006B0100006B0100007D
S11300706B0100006B010000C51600006B0100005D
S11300806B0100006B0100006B0100006B010000BC
S1130090000000006B0100006B0100006B01000018
S11300A06B0100006B0100006B0100006B0100009C
S11300B00000000010B5064C2378002B07D1054B37
S11300C0002B02D0044800E000BF0123237010BDC0
S11300D00001002000000000B0260000084B10B50D
S11300E0002B03D00749084800E000BF0748036815
S11300F0002B00D110BD064B002BFBD09847F9E72D
S11301000000000004010020B0260000FC000020D4
S11301100000000080B500AFC046BD4680BD0000B1
S113012080B582B000AF78607B68034A1A607B6850
S11301301800BD4602B080BDF021000090B585B026
S113014000AF0323FB60FB680533BB60042000F0B1
S11301508DF803001C00002323602000FFF7E0FF5C
S11301607C60C046BD4605B090BD03BEFEE70000FE
S1130170034B10B51B68002B00D0984710BDC04638
S11301801C01002070B50F490F4CA14204D100F0AE
S1130190BBF800F04BF8FEE70C4D00238D42F6D07F
S11301A0CA18E818A24205D39042F0D0084B094976
S11301B0002204E0006804331060F1E704C38B42BA
S11301C0FCD3E4E70000002000010020B426000076
S11301D000010020A808002010B500F024F8002831
S11301E001D100F015F810BD014B18607047C046EE
S11301F01C01002070B5041E07D0044D2E6800F0C9
S113020011F82B689B1B9C42F9D870BD200100207B
S113021010B5034A13680133136000F039F810BDB8
S113022020010020704700207047704710B501F08E
S1130230C1F801F009FFFFF7F8FF0120FFF7DAFF2B
S1130240084C200000F02CFB200000F0A1FBFFF77D
S113025061FFFFF773FF044B002BFAD000E000BFEF
S1130260F7E7C046240100200000000010B501F0AB
S11302700FFF10BD014B18607047C04600000020FE
S11302800122024B52421A607047C046000000200F
S1130290164A10B51368591C27D0013B1360002B74
S11302A023D172B6124B134A0433934208D8BFF3D6
S11302B04F8F114A114BDA60BFF34F8FC046FDE7F1
S11302C00F4A01211000147D0C42FCD02021148B14
S11302D0FF319B085B0021431183D361094B1380D9
S11302E00123027D1A42FCD0E1E710BD000000208A
S11302F000000000030200000400FA0500ED00E025
S11303000040004102A5FFFF1E2270B54648474940
S1130310436893431C3A1343436008238C69234383
S11303208B61434C434B9C829C8A14439C82DC68C3
S11303301442FCD00124404A14701578254203D09D
S113034055786DB2002DF8DB01249460547864B2C2
S1130350002CFBDB394C5460547864B2002CFBDB7A
S11303608224E4015480547864B2002CFBDB022420
S11303709C840E34DD682542FCD0314CDC621024B0
S1130380DD682542FCD09D8C2E4C2C439C8410248B
S1130390DD682542FCD002249D8C80262C439C845D
S11303A04024DD683542FCD0DD682542F9D01024B4
S11303B0DD682542FCD000249460547864B2002C9B
S11303C0FBDB214C5460547864B2002CFBDB1C6AC8
S11303D01E4D2C4080251C621C6AAC431C62032306
S11303E093601B4B536053785BB2002BFBDB002301
S11303F0FF240B72174A4B728B72CB72164B1A6026
S1130400164B174A1B6811689A065B01C90E2340F4
S1130410520F12020B431343124A1385802342687E
S11304201343436070BDC0460040004100040040D7
S11304300C06000000080040000C0040010501000B
S1130440B905FF7D040A000000070300FFFCFFFF5D
S113045003060100006CDC022C00002024608000F4
S1130460206080000040004230B50F25CB1D0139CB
S113047002002A40140000093034092A01DD373211
S113048014001C70013B8B42F2D130BD70B5C02604
S1130490C1B21B4C4B01E3189A681A4DB6052A40A9
S11304A032439A60184A800110180A0058600720E5
S11304B0246808325201115D81430800012101437F
S11304C07020115599692940314399610F49596147
S11304D0115D8143080010210143115599680C48AE
S11304E0A218084080214903014399609968890B47
S11304F089039960402351790B43537170BDC04601
S1130500DC050020FFFFFF8F1003002050010020B6
S1130510FF3F00F070B50400012320CC00212A78AD
S11305202000134380222B70520001F0C4FDAB78ED
S1130530DB07FCD46C6270BD1F22144B70B51B68C2
S1130540590B9C0C9B0111405B0F22401F2900D1C9
S11305501A391F2A00D1023A072B00D1043B1F2568
S113056000688E01048D0A492A40214031430185E7
S1130570018D14000A00AA4322430285028D190347
S1130580044B13400B43038570BDC04624608000B8
S11305903FF8FFFFFF8FFFFFEFF31083036001239A
S11305A0436072B670470368002B02D162B6BFF392
S11305B06F8F704737B5056904006846002D14D164
S11305C0FFF7EAFF019B621D013B02D3D57FEDB229
S11305D0FAE768460193FFF7E6FF002D01D10020FA
S11305E03EBD206AE369C01AFAE7FFF7D5FF22008F
S11305F00025019B3432013B02D31578EDB2FAE7B2
S113060068460193FFF7CFFF002DE8D0206BE36A23
S1130610E9E70000F0B501254668037A31685A011C
S11306208C18FF34A77AB2183D43A572C468094DEB
S11306309068A404284024092043906090680833FB
S1130640800B8003906040225B01CB1819790A4328
S11306501A71F0BDFF3F00F0F7B5036904000E0006
S113066017006846002B3DD1FFF796FF019B611DE3
S1130670013B5A1C0CD0CD7F5A1EEDB2002D05D182
S113068068460193FFF78FFF2800FEBD1300F0E7D3
S1130690684601930025FFF786FFE369AF4202D065
S11306A0226A934257D3226A9342EDD10023E36135
S11306B0013323616846FFF76FFF22000021019B8D
S11306C0671D013B3532581CDAD0F97710785E1E6D
S11306D0002805D0117020000193FFF79BFFECE781
S11306E03300F0E7FFF758FF2100019B3431013B51
S11306F05A1C06D00D785A1EEDB2002DC0D013003E
S1130700F6E7684601930025FFF74DFFE36ABD4213
S113071002D0226B934226D3226B9342B4D100239E
S11307206846E3622361FFF737FF270022000021B8
S1130730019B3437013B3532581CA1D039701078F5
S11307405E1E002805D0117020000193FFF762FFA0
S1130750EBE73300F0E75A1CE261A269D3181B7877
S11307607355013599E75A1CE262A26AD3181B78C3
S113077073550135CAE7F7B5027A436811000400DE
S11307800831186849014118C879C00727D50125DF
S11307905201CD719B189A6861699204920C0029E8
S11307A021D12262226A002A3ED0A26A656168468B
S11307B05A60FFF7F1FE27002100019B661D013BF3
S11307C0343735315A1C2BD0F5773A78581ED2B2CB
S11307D0002A05D0019368460D70FFF7E4FEF7BDCB
S11307E00A700300EEE72263226B002A1CD0002269
S11307F06261A26968465A60FFF7CEFE26002100B6
S1130800019B3436013B671D35315A1C08D03570C5
S1130810FA7F581ED2B2002ADCD10A700300F4E732
S113082068460193FFF7BFFE2000FFF7F3FED6E70B
S113083037B56B46DC1D00230D002000237001F04A
S113084057FA2B681818286001F0F6FA210001F015
S1130850AFFA2B681818286020783EBD03290ED102
S113086080220E4B62311B68FF31585C52420243B6
S11308705A5468226339FF39FF3299547047012969
S1130880FCD18022054B24311B68FF31585C524255
S113089002435A542339FF392822EDE7DC050020AE
S11308A070B500252F4B012104001A201D7000F0A3
S11308B02BFE01211A2000F073FE2B4B012119207D
S11308C01D7000F021FE0121192000F069FE202393
S11308D0264A0F20D1690B43D361012224490B78A6
S11308E013430B70234B19788143197006211D782B
S11308F02943197020490D782A430A701A78024056
S11309001A70602219780A431A701C4B1C4A5A80C8
S11309105A78D209FCD11B48FFF766FC1A4D28000F
S1130920FFF7F8FD2800FFF707FE7F212B68C120A1
S11309301A7880000A401A70042219780A430C219C
S11309401A701A898A4311491A810A581202120A22
S11309500A5080220A6019787E3A0A431A700123E9
S1130960237070BD450100204401002000040040B4
S1130970584400413C44004159440041000C0040AB
S11309800640000095130000DC05002000E100E0B3
S11309900078002810D00121084B1B681A898A436B
S11309A01A810822198B0A431A830422198B0A43D9
S11309B01A830022024B1A607047C046DC050020EF
S11309C0D405002010B50F4A93699B0B9B039361D8
S11309D013680222FF331A729879823A02439A7199
S11309E01A7A9207FCD57F24074A2140937A08009B
S11309F0A3431900802301439172917A5B420B4314
S1130A00937210BDDC0500200050004110B50B7935
S1130A100C00002B0CD1080001F078F9002801D05B
S1130A20012010BD094A93699B0B9B039361F7E76F
S1130A3001F002FA210001F0EEF90028F0D1034A96
S1130A4093699B0B9B039361EBE7C046DC05002095
S1130A50F7B50D00832A19D1CBB2404C5A01A21824
S1130A6091693F48AD010840C02189050143916166
S1130A703C4920684D197021083355615B011A5CAB
S1130A808A43110040220A431A54F7BD022A3DD179
S1130A903820FFF7EBFB344B8027036000232F4EF5
S1130AA07F00421D036203614361C3614660856048
S1130AB0C760D3772F32C362036304001370380016
S1130AC0537001F0E5FA0190A061380001F0E0FAFA
S1130AD0EBB25A01A062B218916821480833084069
S1130AE0C021890501439160306807265B01195CC8
S1130AF0AD00B1430E00032131431954019B200082
S1130B005360FFF787FD194BEC50BEE7822A1FD1D3
S1130B10CBB2124C5A01A21891691148AD01084098
S1130B20C0218905014391610E4908334D19802183
S1130B30556122685B01D01804794942214301714F
S1130B407020995C814308003021014399549CE74B
S1130B50002A9AD10800FFF799FC96E7DC050020EB
S1130B60FFFFFF8F50010020002200002801002019
S1130B7070B505000124064BA200D258002A05D006
S1130B8021002800FFF764FF0134F4E770BDC0467C
S1130B9004000020084B8A00D05810B5002803D068
S1130BA003689B68984710BDC9B2044B49015918A2
S1130BB088688004800CF6E728010020DC0500200A
S1130BC010B50C00FFF7E6FF00280CD0064BE4B28A
S1130BD01B68083464011C19802362795B42134347
S1130BE063710223E37110BDDC05002070B5134B63
S1130BF0CCB2134A600189015918131859609968D5
S1130C00104D08340D408021890229434025996004
S1130C109968890B8903996011686301CB181E795F
S1130C2035431D719D796D06FCD564010919CB7995
S1130C30DB07FCD512189068C0B270BD1003002009
S1130C40DC050020FF3F00F070B5140040220B4B80
S1130C500D001B68FF3359790A435A710021FFF7CD
S1130C60C5FFA04200D9200000230549A34203D0B8
S1130C705A5CEA540133F9E770BDC046DC05002034
S1130C801003002010B5C9B20B48490142189368FB
S1130C909B049B0C3F2B0BDD9468403B9B04A40BF3
S1130CA09B0CA4032343936041188868C0B210BD11
S1130CB093689B0B9B03F6E7DC050020F0B51C0052
S1130CC0304B85B01B6806000D000192002B55D0F7
S1130CD02D4F3978C9B2002902D1192000F060FCE7
S1130CE064233B70294BAA00D058002808D003681D
S1130CF022005B68019998470400200005B0F0BD0C
S1130D0029003000FFF746FF844204D9290030004F
S1130D10FFF740FF040029003000FFF7B3FF012173
S1130D20EBB21B4F03935B010293029A3B68019859
S1130D309B18FF335A7A0A4316495A72AB01C918F1
S1130D40220001F0AFF9002CD7D029003000FFF7C2
S1130D5021FF0028D1D14021039B3A6808335B016D
S1130D60D3181879014319710121D9710121029B0A
S1130D70D318FF339A7A0A439A72BEE70124644275
S1130D80BBE7C046D4050020440100202801002010
S1130D90DC0500201003002013B56B46DC1D220087
S1130DA00123FFF78BFF012801D1207816BD012014
S1130DB04042FBE7F0B51E003A4B85B01B680F00BC
S1130DC00192002B3FD08023DB019E423BD8364C5E
S1130DD02178C9B2002902D11A2000F0E1FB642372
S1130DE00025324A2370BB01D3180293002E2CD065
S1130DF02F4B1B680393FF233B401C0000930834D4
S1130E00039B64011C19A379DB0921D0294B2A49CE
S1130E10186801F08DF8294B1721584301F088F820
S1130E20274BE279920713D4DA5D002A01D1013805
S1130E30F7D20122DA55009B5A011D4B9B189A697F
S1130E40920B92039A6101256D42280005B0F0BD12
S1130E5000221B4B3400DA553F2E00D93F242200D8
S1130E600199029801F01EF9009BA1045A01104B4C
S1130E70890C9B18029A2D195A619A69361B920B98
S1130E8092030A439A61009B039A08335B01D318C7
S1130E900222DA715979823A0A435A71019B1B1969
S1130EA00193A3E7D4050020450100205001002050
S1130EB0DC0500202C00002040420F0070110100CE
S1130EC04701002070B50D001C000D4EAB01F61853
S1130ED011003000220001F0E5F8EDB209496D017E
S1130EE04D196E61AB69084A20001340AB61AB69D0
S1130EF0A2049B0B920C9B031343AB6170BDC046D1
S1130F0050010020DC050020FF3F00F0F7B5104B36
S1130F1001901B780F001500002B0CD10D4B16000F
S1130F201C78002C09D00C4E0C4834880019641924
S1130F3001F0B8F834802800FEBD002EFBD03A1929
S1130F40330000210198FFF7BDFF2418361AF4E797
S1130F50D0040020D1050020D2050020D1040020B7
S1130F60F8B5002000AF0E001500012A26DDD31DC0
S1130F706A46DB08DB00D31A9D46080001F014F929
S1130F806C460323002101304000207063705A1E18
S1130F90D2B295420BDD3078002808D00136A05437
S1130FA09D4203D0E1540233DBB2F0E72A00210072
S1130FB00348FFF7ABFF431E9841C0B2BD46F8BDDE
S1130FC024010020F0B50027012687B01E4B0091B4
S1130FD002A91E7005000297FFF72AFC03AC0190DA
S1130FE009223900200001F066F809232370022346
S1130FF063709E33E3715A332372029B6671093323
S113100063806B461B7923710F4B1F70009B092B68
S113101007D11A0021002800FFF778FF012007B04C
S1131020F0BD0A4B09221E70094E210028000297C8
S11310303780FFF76BFF02A92800FFF7F9FB034B8A
S113104032881F700349E6E7D0040020D105002050
S1131050D2050020D104002070B5CE7892B00500EE
S11310600C00022E08D1C9882B48FFF7ABFF431EA2
S11310709841C0B212B070BD00F0DEFE210000F055
S1131080ABFE002803D0C317181AC00FF2E7012ED5
S11310900BD1E2882149112A10DCD2B2002A0DD0EA
S11310A02800FFF733FF0120E4E7032EE2D1A37801
S11310B0002B05D1E2881A49032AEEDD0A78EFE70E
S11310C0022B05D1A27917492800FFF749FFD1E780
S11310D0012B02D1A2791449F6E7032BCAD1134B91
S11310E001A91868FFF7C0F9114B03A91868FFF7A5
S11310F0BBF9104B05A91868FFF7B6F90E4B07A901
S11311001868FFF7B1F900F097FE09A900F074FE22
S1131110A27901A9D8E7C0462401002025220000B5
S1131120182200000C2200001C2200000CA08000E9
S113113040A0800044A0800048A0800073B5060051
S113114048780D000B2811D800F0E8FE061D102E7B
S1131150104348704C4F696C097801AA002907D1E3
S11311600223117051703000FFF7ACFE012076BDF0
S11311700023137053702E4B1B78012B00D1137076
S113118002230021EFE78A780023012A04D101AA6F
S113119013705370274BEFE7254A1370264A93695F
S11311A09B0B9B039361E1E78C78012C06D1002112
S11311B0204B01AA1C7011702300D4E7002C08D125
S11311C001201B4B1C4A187093699B0B9B03936172
S11311D0CDE7A9783000FFF7F5FBC7E73000FFF74C
S11311E03BFFC4E70123154ACBE70B780020DB065D
S11311F0BDD13000FFF7BCFC2A200221AA780F4B96
S1131200FF301A600C4A13681C5C21434A241954A9
S1131210FF34195D2938FF3801431955D4E70123F8
S1131220074AAEE78A78064B1A60B7E700209EE7C4
S1131230460100204E010020DC050020D4050020DA
S1131240D80500204B4BF7B51C780700002C7CD147
S1131250494E33689B8B1B070DD52000FFF716F909
S1131260326810231100FF31887A03438B72434B99
S11312701C600823938333689A8B52071FD504227A
S11312809A833F4A1378002B0AD01378013BDBB2D0
S113129013701378002B03D101211A2000F080F978
S11312A0384A1378002B0AD01378013BDBB2137051
S11312B01378002B03D10121192000F071F9336850
S11312C0FF331A7AD20620D510221A725979303295
S11312D00A435A7160232C4938000A781A4235D1DE
S11312E0FFF72CFF002834D0802233685242FF33AA
S11312F099790A439A713368FF331A7A520604D5EE
S113130040221A72597A0A435A72336800251C8C97
S113131001239C43E4B20193E9B2002C15D02300CD
S11313202B41019A13420DD02B00326808335B0124
S1131330D318DA79D20713D4DB799B0710D4019B35
S1131340AB409C430135092DE6D1F7BDFFF75EFBA9
S1131350C8E720220D4BCDE703681B689847EEE7EA
S11313600B4BAA00D0580028F6D13800FFF776FAC4
S1131370E5E7C046D1050020DC050020D4050020A7
S1131380450100204401002010030020FF500041CB
S11313902801002010B50248FFF754FF10BDC046D5
S11313A024010020014A024B1A607047005000419A
S11313B0DC050020FA21314B10B51868890000F0D3
S11313C0B7FD2F4B0138984256D82E492E4A486013
S11313D0C020136A00061B021B0A03431362002485
S11313E007238C600B608021136A09061B021B0A09
S11313F00B431362FC22254B196A0A431A62FC222E
S1131400196A92010A431A62A022196AD2020A4393
S11314101A6220000021013400F076F8142CF8D16F
S11314201B4B1C005A7852B2002AFBDB194A5A8023
S1131430194B1A00597EC9090129FBD0E421C900BE
S113144099803F21D970537EDB09012BFBD0C02347
S113145000205B011361907000F024F863785BB2A4
S1131460002BFBDB0D4B0E4A6380D379DB09012B88
S1131470FBD04123537010BDFEE7C0462C00002072
S1131480FFFFFF0010E000E000ED00E0000400407A
S1131490000C00401E4000000040004221400000BB
S11314A000480042164A00B51300517EC9090129BB
S11314B0FBD00138042816D81969124A0A400F21B2
S11314C01A615A788A4300F029FD0308060B0300C9
S11314D0110001220A435A7000BD11000322F9E7EA
S11314E011000222F6E7F02311691B050B430F21BB
S11314F0136153788B43190002230B435370EBE7BA
S113150000400042FFFFFFF0182330B51D00040027
S113151045430820204A55192856013014D0032980
S113152012D808006343D156D31800F0F7FC022800
S11315300E1B5868CB010221184A9B181A18403216
S11315401170012282405A6030BD5868CB010621D7
S1131550124A9B181A1840321170012282405A60B4
S11315609A61F1E75868CB0106210C4A9B181A18B6
S113157040321170012282405A605A61E4E758688F
S1131580CB010221054A9B181A184032117001221E
S113159082409A60D8E7C0463822000000440041E7
S11315A01823F0B508245843114A13181C57013462
S11315B01BD0012635005F688356BD400D4ADB0110
S11315C09A18906828420BD10C00601E8441D219ED
S11315D04032107834400336A400B04320431070E6
S11315E0044A9B18002901D15D61F0BD9D61FCE7AF
S11315F03822000000440041F8B503001820584385
S11316002A4A1018007A40B20400013013D0481C52
S113161000240C280FD800F081FC451C1C1C1C1C49
S11316201C1C1C0707070700092906D10021180004
S1131630FFF76AFF00242000F8BD0A2901D1083908
S1131640F5E700240B29F6D10A391800FFF75CFFEF
S1131650F1E718204343D018466801253400D256D8
S11316601348D20112187308D31830332C40187859
S1131670002C0BD00F24090120400143C9B2921958
S11316801970403213781D431570D3E70F27B84300
S113169001439219C9B21970130040331A781543E3
S11316A01D70C8E701246442C5E7C0463822000023
S11316B00044004110B5024800F0F4F910BDC046E2
S11316C09C07002010B5024800F0ECF910BDC0469C
S11316D0E0060020F7B501240326154F154938000C
S11316E000F042F81449154800F03EF81449154832
S11316F000F03AF81449154800F036F81449154832
S113170000F032F8144D1549280000F02DF8390086
S11317100096230001940022114800F095F90096E8
S1131720290001941E231F220E4800F08DF9F7BDF5
S11317305808002000080042000C00425C08002009
S113174000100042600800200014004264080020D9
S113175000180042680800206C080020001C0042A9
S11317609C070020E006002001607047F0B505AC3E
S113177025780468981E471EB8412668920700061B
S113178032430243072022600140AD0162682943CD
S11317900020022B00D05803114301436160F0BDC7
S11317A010B5C0240368A40318681205224002433C
S11317B0C020090480020140114319605A68104393
S11317C0586010BD0122036819680A431A601A6838
S11317D0D207FCD4DA69D207F9D47047022203682D
S11317E019680A431A60DA699207FCD470470368DF
S11317F01A7ED20702D41A7E9207FCD570470022C3
S113180003685A8370470368187E4007C00F704707
S11318100368187EC0097047802302685B42117E0A
S11318200B43137670470368187EC007C00F7047D8
S11318300368188DC0B2704703681A7ED207FCD5BE
S113184089B201201985704701230268917D0B43F9
S113185093757047012203681A7570470368214A1B
S113186030B5934211D0204A93422FD01F4A93425D
S11318702FD01F4A93422FD01E4A93422FD01E4A84
S1131880934222D10E23192201E0092314220121BB
S1131890032599401948C024016099082B40AB40A6
S11318A0FC359D4089000918A4000859A843C025A7
S11318B09D402B0003430B518023DB011A43104B43
S11318C05A805A7852B2002AFBDB30BD0A23152213
S11318D0DDE70B231622DAE70C231722D7E70D23C3
S11318E01822D4E700080042000C00420010004215
S11318F00014004200180042001C004200E100E015
S1131900000C0040F8B5040016000F001D00FFF79E
S1131910A5FF2000FFF756FF1C22BB0013407207EF
S11319202468120C134323608423A375012F18D158
S11319301021012E00D008390A4B69431868C000F1
S113194000F0F6FA0722A3890240DB045203DB0C01
S11319501343A3810304A089DB0C400B4003184309
S1131960A081F8BD2C0000200120704710B5036849
S1131970014A1B6A984710BD1304000010B5040007
S11319800069FFF71FFF2000143000F091FA2000D7
S11319905C3000F08DFA10BD10B5143000F09AFAE6
S11319A010BD10B5040020005C3000F093FA00284C
S11319B0F9D12069FFF71BFF10BD10B55C3000F0B2
S11319C08FFA10BD70B5050004001435280000F02E
S11319D073FA2300A8331B780600FF2B0AD02800D3
S11319E000F07EFA0A2805DD2300B434B0331B6806
S11319F022681A60300070BD10B5143000F07AFA15
S1131A0010BD70B5040000690E002500FFF70BFF40
S1131A105C35002804D0280000F05CFA00280DD0C2
S1131A20280000F070FA0028FAD12800310000F0F4
S1131A3034FA2069FFF708FF012070BD31002069E6
S1131A40FFF7FAFEF8E70000F7B51D0008AB1B78B6
S1131A500400009309AB1B78160001930023436034
S1131A60FA239B0083600E4B0F000833036014308D
S1131A7000F008FA20005C3000F004FA6A46230003
S1131A801278A43327619A706A4612791E70DA704C
S1131A9022005D70FF23A832200013701374FEBD72
S1131AA05826000070B504000069FFF7ACFE00285A
S1131AB019D025002069FFF7BBFE1435010028006A
S1131AC000F0EBF92300A8331B78FF2B0BD0280080
S1131AD000F006FA092806DC23002200AC33B432F5
S1131AE01B6812681A602069FFF79DFE00280DD05C
S1131AF025005C35280000F0EDF9002812D02800FC
S1131B0000F0DAF9C1B22069FFF796FE2069FFF709
S1131B107FFE002805D02069FFF77EFE2069FFF7CD
S1131B206EFE70BD2069FFF795FEEFE7F0200140DF
S1131B303039484248417047F0231B011940802343
S1131B4006209B0099420AD00133FF3301309942A9
S1131B5005D0802302385B00994200D000207047F2
S1131B600F2001400020012903D00239481E814181
S1131B70481C70470300F0B5182685B00391A433C0
S1131B8004001878330008214343334D1700EB1841
S1131B905956FFF731FD2300A53318783300082187
S1131BA04343EB185956FFF727FD2300A7331B784F
S1131BB0022B0AD12300B8331878FF2805D0082156
S1131BC04643AE197156FFF717FD2600A836307844
S1131BD0FF2819D00121FFF797FC18222100337840
S1131BE01E485A43AB56AC31DB01181808601C4937
S1131BF0AD185B1821000122B0310B6069688A407E
S1131C002100B4310A601A600122039B110020698B
S1131C10FFF778FE39002000FFF78EFF390005003A
S1131C202000FFF79DFF390006002000FFF77EFF2C
S1131C3033000090290020690122FFF797FD23005B
S1131C40A6331A7859782069FFF7AAFD2069FFF7AF
S1131C50C5FD05B0F0BDC04638220000184400415F
S1131C60144400413F20704713B56B460268D97194
S1131C700733546819000122A04716BD10B502218C
S1131C800069FEF787FF10BD10B503210069FEF758
S1131C9097FF10BD10B5130004000A00006903216A
S1131CA0FFF788F8002801D10123636010BD00000C
S1131CB010B5054C23685A1C04D103685B69984726
S1131CC003002060180010BD80000020074B0200B4
S1131CD0186810B5411C03D0012252421A6010BD8D
S1131CE002211069FFF758F8F9E7C0468000002088
S1131CF010B5037842220233037002490248FFF709
S1131D0005F910BD3C0000202401002010B5017825
S1131D10030042780020A12908D1212A05D11A3ACA
S1131D2016491748FFF7F2F8012010BD2129FCD10C
S1131D30202A11D1193A11491148FEF785FF96223C
S1131D400E4BD2001968914203D10124D879044082
S1131D500ED0FEF795FA0EE0222A03D19A78074BAB
S1131D60DA71ECE7232AE0D15A88064B1A60DCE7E3
S1131D70FA20FEF77FFA0020D7E7C046340000209F
S1131D802401002030000020FA220021054B92009B
S1131D909A60054A596008321A60044A19761A6131
S1131DA07047C046700800208C26000024010020E3
S1131DB070B50E0000254468002C0BD02368310058
S1131DC05B6820009847002802DB2D18E468F3E7DD
S1131DD001256D42280070BD70B50D004468002CCB
S1131DE008D0236829009B6820009847002802D166
S1131DF0E468F4E7200070BD70B50D004468002C61
S1131E0007D0236829002000DB689847E4682D1870
S1131E10F5E72C7070BD70B50D004468002C08D037
S1131E20236829001B6820009847002802D1E46831
S1131E30F4E7200070BD00000121064A10B51368C4
S1131E4005480B4005D102240470241944704360F2
S1131E50116010BD8C08002090080020F7B5060022
S1131E600D000C008B180193019B671B9C4207D04B
S1131E70336821781B683000984701340028F3D177
S1131E803800FEBD10B540220021040000F013F913
S1131E90002320002364636410BD10B53F24026C4A
S1131EA0531C2340446C9C4201D08154036410BDF4
S1131EB00023036443647047436C026C934206D06E
S1131EC03F21C25C01330B40436410007047012082
S1131ED04042FBE7036C406C181A00D54030704751
S1131EE0036C406C834202DBC01A3F307047C01A57
S1131EF00138FBE7436C026C934201D0C05C70472D
S1131F0001204042FBE73F22036C406C0133134045
S1131F10181A42424241D0B27047000002B47146DE
S1131F2049084900095C49008E4402BC7047C04618
S1131F30002243088B4274D303098B425FD3030A04
S1131F408B4244D3030B8B4228D3030C8B420DD317
S1131F50FF22090212BA030C8B4202D312120902A5
S1131F6065D0030B8B4219D300E0090AC30B8B42E3
S1131F7001D3CB03C01A5241830B8B4201D38B0391
S1131F80C01A5241430B8B4201D34B03C01A524136
S1131F90030B8B4201D30B03C01A5241C30A8B4279
S1131FA001D3CB02C01A5241830A8B4201D38B0264
S1131FB0C01A5241430A8B4201D34B02C01A524108
S1131FC0030A8B4201D30B02C01A5241CDD2C3097A
S1131FD08B4201D3CB01C01A524183098B4201D3F6
S1131FE08B01C01A524143098B4201D34B01C01AE1
S1131FF0524103098B4201D30B01C01A5241C30859
S11320008B4201D3CB00C01A524183088B4201D3C7
S11320108B00C01A524143088B4201D34B00C01AB3
S11320205241411A00D20146524110467047FFE71F
S113203001B5002000F006F802BDC0460029F7D023
S113204076E770477047C04670B500260C4D0D4CBE
S1132050641BA410A64209D1002600F0BDF80A4D65
S11320600A4C641BA410A64205D170BDB300EB5802
S113207098470136EEE7B300EB5898470136F2E78C
S1132080E8000020E8000020E8000020F80000201C
S113209010B5034B0100186800F016F810BDC046D7
S11320A084000020002310B59A4200D110BDCC5CFE
S11320B0C4540133F8E703008218934200D17047F7
S11320C019700133F9E70000032370B5CD1C9D435B
S11320D0083506000C2D1ED20C25A9421DD830004F
S11320E000F069F8254A14682100002919D1244C0C
S11320F02368002B03D1300000F044F8206029004D
S1132100300000F03FF8431C2CD10C233000336026
S113211000F052F803E0002DDFDA0C2333600020D6
S113212070BD0B685B1B1AD40B2B03D90B60CC1846
S1132130256003E08C420ED163681360300000F028
S11321403BF8200007220B30231D9043C31AE7D02D
S11321505A42E250E4E74B6863600C00EEE70C007F
S11321604968C2E70323C41C9C43A042E0D0211A5F
S1132170300000F007F8431CDAD1C6E798080020C5
S11321809C080020002370B5064C0500080023605D
S113219000F014F8431C03D12368002B00D02B60FB
S11321A070BDC046A40800200023C25C0133002A8D
S11321B0FBD1581E7047704770470000044A1368EB
S11321C0002B03D01818106018007047014BF9E772
S11321D0A0080020A8080020F8B5C046F8BC08BC38
S11321E09E467047F8B5C046F8BC08BC9E4670478A
S11321F0746573740000000000000000000000001B
S11322007707000059060000B505000046656174B3
S1132210686572204D30000004030904416461665E
S1132220727569740012010002EF0201409A230BD7
S11322308000010102030100000000000B00000007
S11322400200000004000000FF00FFFFFFFF0B007E
S1132250000000000A00000002000000040000006A
S1132260FF00FFFFFFFF0A00000000000E00000057
S11322700800000004000000FF00FFFFFFFF0E0045
S11322800000000009000000040000001C00000021
S1132290FF00010001000900000000000800000028
S11322A0040000001C000000FF00000000001000FB
S11322B0000000000F000000040000001C000000EB
S11322C0FF00010301030F000000000014000000E0
S11322D0050000002C000000FF00020002000400C2
S11322E00000000015000000050000002C000000A4
S11322F0FF000300030005000000000006000000CA
S1132300040000001C000000FF00000100010600A2
S11323100000000007000000040000001C00000092
S1132320FF0001010101070000000000120000008D
S1132330040000001C000000FF0000030003020072
S11323400000000010000000040000001C00000059
S1132350FF00000200020000000000001300000063
S1132360050000002C000000FF0003000300030030
S11323700000000011000000040000001C00000028
S1132380FF00010201020100000000000200000041
S113239001000000020000000000FFFFFFFF020038
S11323A00100000008000000010000001800000007
S11323B002000004000408000100000009000000FD
S11323C001000000180000000300010401040900DA
S11323D000000000040000000100000000000000F4
S11323E00400FFFFFFFF04000000000005000000E0
S11323F001000000000000000500FFFFFFFF0500D2
S113240001000000020000000100000000000000C4
S11324100A00FFFFFFFF020000000000160000009A
S11324200200000004000000FF00FFFFFFFF0600A1
S1132430000000001700000002000000040000007B
S1132440FF00FFFFFFFF0700000000000C0000007A
S11324500300000004000000FF00FFFFFFFF0C006A
S1132460010000000A000000030000000400000056
S1132470FF00FFFFFFFF0A00010000000B00000047
S11324800300000004000000FF00FFFFFFFF0B003B
S113249001000000030000000B0000000400000025
S11324A0FF00FFFFFFFFFF00000000001B00000013
S11324B00B00000004000000FF00FFFFFFFFFF000F
S11324C0000000001C0000000600000000000000E6
S11324D0FF00FFFFFFFFFF000000000018000000E6
S11324E00600000000000000FF00FFFFFFFFFF00E8
S11324F000000000190000000600000000000000B9
S1132500FF00FFFFFFFFFF000100000016000000B6
S11325100300000000000000FF00FFFFFFFFFF00BA
S1132520010000001700000003000000000000008C
S1132530FF00FFFFFFFFFF00000000001600000087
S11325400200000000000000FF00FFFFFFFFFF008B
S1132550000000001700000002000000000000005E
S1132560FF00FFFFFFFFFF0000000000130000005A
S11325700200000000000000FF00FFFFFFFFFF005B
S11325800000000010000000020000000000000035
S1132590FF00FFFFFFFFFF0000000000120000002B
S11325A00200000000000000FF00FFFFFFFFFF002B
S11325B00000000011000000020000000000000004
S11325C0FF00FFFFFFFFFF00000000000D00000000
S11325D0040000000C000000FF000100FFFF0D00DC
S11325E00000000015000000050000000C000000C1
S11325F0FF000300FFFFFF000000000006000000D2
S1132600040000000C000000FF000001FFFFFF00B9
S11326100000000007000000040000000C0000009F
S1132620FF000101FFFFFF000000000003000000A5
S11326300100000002000000FF00FFFFFFFFFF0099
S11326400000000002000000010000000200000081
S11326501400FFFFFFFF0200000000000000000064
S1132660031A00005D1E0000BB190000A31900003E
S113267099190000C5190000F91900006D1900002E
S1132680751B00007D19000069190000000000009E
S113269000000000691C0000951C0000651C00007F
S11326A0891C00007D1C0000CD1C0000B11C000032
S10726B00000000022
S11326B4FFFFFFFF00000000830000000200000091
S11326C48200000000000000000000000000000080
S11326D400000000000000000000000040420F0061
S11326E4FFFFFFFF00C2010000000800080B000206
S11326F40202000009040000010202000005240093
S11327041001042402060524060001052401010124
S11327140705810310001009040100020A000000E7
S11327240705020240000007058302400000000080
S1132734FFFFFFFF880000200000000000000000ED
S11327440000000000000000000000000000000081
S11327540000000000000000000000000000000071
S11327640000000000000000000000000000000061
S11327740000000000000000000000000000000051
S11327840000000000000000000000000000000041
S11327940000000000000000DD000000A51300009C
S11327A4D5160000891D0000B500000000000000DB
S903018576
