:10000000008000209D0100008501000085010000A6
:1000100000000000000000000000000000000000E0
:10002000000000000000000000000000850100004A
:10003000000000000000000085010000F101000048
:100040008501000085010000850100008501000098
:100050008501000085010000850100008901000084
:1000600085010000451800008501000085010000A1
:100070008501000085010000551800008501000081
:100080008501000085010000850100008501000058
:1000900000000000850100008501000085010000CE
:1000A0008501000085010000850100008501000038
:1000B0000000000010B5064C2378002B07D1054B3B
:1000C000002B02D0044800E000BF0123237010BDC4
:1000D0000001002000000000C4250000084B10B5FE
:1000E000002B03D00749084800E000BF0748036819
:1000F000002B00D110BD064B002BFBD09847F9E731
:100100000000000004010020C4250000FC000020C5
:1001100000000000962110B58901024800F044FA61
:1001200010BDC0462401002070B50D000400002160
:100130000A2001F0D9FA2B0001220B210C2001F03A
:100140005DFB230001220B210C2001F057FB012154
:100150000A2001F0C9FA70BD37B5094D280000F03A
:100160009DF900280BDD01AC02222100280000F0DF
:100170001CFA002803D061782078FFF7D5FF37BD3F
:100180002401002003BEFEE7034B10B51B68002BC3
:1001900000D0984710BDC0461C01002070B50F4923
:1001A0000F4CA14204D100F0BDF800F051F8FEE779
:1001B0000C4D00238D42F6D0CA18E818A24205D390
:1001C0009042F0D0084B0949002204E00068043353
:1001D0001060F1E704C38B42FCD3E4E70000002089
:1001E00000010020C825000000010020B808002000
:1001F00010B500F02AF8002801D100F01BF810BD5E
:10020000014B18607047C0461C010020014B186864
:100210007047C0462001002070B5041E07D0044D71
:100220002E6800F011F82B689B1B9C42F9D870BD1A
:100230002001002010B5034A13680133136000F059
:1002400035F810BD2001002070470020704770472E
:1002500010B501F053F901F06FFEFFF7F8FF012030
:10026000FFF7DAFF084C200000F0DAFB200000F076
:100270004FFCFFF74FFFFFF76FFF044B002BFAD047
:1002800000E000BFF7E7C04640010020000000008A
:10029000014B18607047C046000000200122024B4D
:1002A00052421A607047C04600000020164A10B53E
:1002B0001368591C27D0013B1360002B23D172B661
:1002C000124B134A0433934208D8BFF34F8F114A9D
:1002D000114BDA60BFF34F8FC046FDE70F4A012193
:1002E0001000147D0C42FCD02021148BFF319B08A0
:1002F0005B0021431183D361094B13800123027DED
:100300001A42FCD0E1E710BD000000200000000010
:10031000030200000400FA0500ED00E00040004187
:1003200002A5FFFF1E2270B5464847494368934324
:100330001C3A1343436008238C6923438B61434C6D
:10034000434B9C829C8A14439C82DC681442FCD000
:100350000124404A14701578254203D055786DB2B7
:10036000002DF8DB01249460547864B2002CFBDB90
:10037000394C5460547864B2002CFBDB8224E401D5
:100380005480547864B2002CFBDB02249C840E342D
:10039000DD682542FCD0314CDC621024DD6825424A
:1003A000FCD09D8C2E4C2C439C841024DD6825426F
:1003B000FCD002249D8C80262C439C844024DD6844
:1003C0003542FCD0DD682542F9D01024DD68254295
:1003D000FCD000249460547864B2002CFBDB214CE8
:1003E0005460547864B2002CFBDB1C6A1E4D2C4018
:1003F00080251C621C6AAC431C62032393601B4B68
:10040000536053785BB2002BFBDB0023FF240B729D
:10041000174A4B728B72CB72164B1A60164B174AE7
:100420001B6811689A065B01C90E2340520F120225
:100430000B431343124A13858023426813434360DE
:1004400070BDC04600400041000400400C060000A2
:1004500000080040000C004001050100B805FF7DC8
:10046000040A000000070300FFFCFFFF0306010071
:10047000006CDC028000002024608000206080008E
:10048000004000423F20704713B56B460268D971A7
:100490000733546819000122A04716BD10B5022188
:1004A000006900F037FC10BD10B50321006900F0B1
:1004B00047FC10BD10B5130004000A0000690321B9
:1004C00000F038FD002801D10123636010BD000059
:1004D00010B5054C23685A1C04D10368DB689847A3
:1004E00003002060180010BD54000020074B0200DC
:1004F000186810B5411C03D0012252421A6010BD89
:100500000221106900F008FDF9E7C0465400002000
:1005100010B503784222023303700249024800F00A
:10052000B5FD10BD100000204001002010B501787D
:10053000030042780020A12908D1212A05D11A3AC6
:100540001649174800F0A2FD012010BD2129FCD159
:10055000202A11D1193A1149114800F035FC962290
:100560000E4BD2001968914203D10124D87904407E
:100570000ED0FFF793FE0EE0222A03D19A78074BA4
:10058000DA71ECE7232AE0D15A88064B1A60DCE7DF
:10059000FA20FFF77DFE0020D7E7C04608000020C4
:1005A00040010020040000207047F7B505000191CC
:1005B0001700FFF72BFE0024E860BC4211D2019A1D
:1005C0003B1B12190221286900F038FC061E06D1D7
:1005D000FFF71CFEEB68C01AAB68984201D2A41961
:1005E000EBE72000FEBD0000FA220021054B92003F
:1005F0009A60054A596008321A60044A19761A61ED
:100600007047C04624010020E02000004001002087
:1006100070B5C026C1B21B4C4B01E3189A681A4D45
:10062000B6052A4032439A60184A800110180A0021
:1006300058600720246808325201115D8143080088
:100640000121014370201155996929403143996175
:100650000F495961115D8143080010210143115573
:1006600099680C48A2180840802149030143996009
:100670009968890B89039960402351790B43537121
:1006800070BDC046F8050020FFFFFF8F2C0300203F
:100690006C010020FF3F00F070B50400012320CC66
:1006A00000212A782000134380222B70520001F091
:1006B0007AFCAB78DB07FCD46C6270BD1F22144B54
:1006C00070B51B68590B9C0C9B0111405B0F2240BD
:1006D0001F2900D11A391F2A00D1023A072B00D155
:1006E000043B1F2500688E01048D0A492A402140E1
:1006F00031430185018D14000A00AA43224302857B
:10070000028D1903044B13400B43038570BDC04693
:10071000246080003FF8FFFFFF8FFFFFEFF310839F
:1007200003600123436072B670470368002B02D157
:1007300062B6BFF36F8F704737B50569040068462E
:10074000002D14D1FFF7EAFF019B621D013B02D38C
:10075000D57FEDB2FAE768460193FFF7E6FF002D7B
:1007600001D100203EBD206AE369C01AFAE7FFF715
:10077000D5FF22000025019B3432013B02D31578BE
:10078000EDB2FAE768460193FFF7CFFF002DE8D0FE
:10079000206BE36AE9E70000F0B501254668037ABB
:1007A00031685A018C18FF34A77AB2183D43A572FC
:1007B000C468094D9068A40428402409204390602F
:1007C00090680833800B8003906040225B01CB1857
:1007D00019790A431A71F0BDFF3F00F0F7B50369BC
:1007E00004000E0017006846002B3DD1FFF796FF6E
:1007F000019B611D013B5A1C0CD0CD7F5A1EEDB2EE
:10080000002D05D168460193FFF78FFF2800FEBD3C
:100810001300F0E7684601930025FFF786FFE369C0
:10082000AF4202D0226A934257D3226A9342EDD15B
:100830000023E361013323616846FFF76FFF220065
:100840000021019B671D013B3532581CDAD0F97736
:1008500010785E1E002805D0117020000193FFF76C
:100860009BFFECE73300F0E7FFF758FF2100019B07
:100870003431013B5A1C06D00D785A1EEDB2002DC2
:10088000C0D01300F6E7684601930025FFF74DFF3F
:10089000E36ABD4202D0226B934226D3226B93427D
:1008A000B4D100236846E3622361FFF737FF2700D6
:1008B00022000021019B3437013B3532581CA1D066
:1008C000397010785E1E002805D011702000019349
:1008D000FFF762FFEBE73300F0E75A1CE261A26921
:1008E000D3181B787355013599E75A1CE262A26A46
:1008F000D3181B7873550135CAE7F7B5027A4368F8
:10090000110004000831186849014118C879C0076E
:1009100025D501255201CD719B189A686169920411
:10092000920C00291FD12262A26A65615A60631D80
:10093000DD776846FFF7F2FE25002100019B343584
:10094000013B35315A1C2BD02A78581ED2B2002ACE
:1009500006D0019301230B706846FFF7E6FEF7BD52
:100960000A700300EEE7226300226261A269684612
:100970005A60FFF7D3FE26002100019B3436013B6D
:10098000671D35315A1C0BD03570FA7F581ED2B214
:10099000002A02D001930D70DEE70A700300F1E730
:1009A00068460193FFF7C1FE2000FFF7F5FED6E78A
:1009B00037B56B46DC1D00230D0020002370FFF7C8
:1009C000A7FD2B681818286001F0A8F9210001F094
:1009D00061F92B681818286020783EBD03290ED1D4
:1009E00080220E4B62311B68FF31585C5242024339
:1009F0005A5468226339FF39FF32995470470129EC
:100A0000FCD18022054B24311B68FF31585C5242D7
:100A100002435A542339FF392822EDE7F805002014
:100A200070B500252F4B012104001A201D7000F025
:100A30000FFE01211A2000F057FE2B4B0121192037
:100A40001D7000F005FE0121192000F04DFE20234D
:100A5000264A0F20D1690B43D361012224490B7828
:100A600013430B70234B19788143197006211D78AD
:100A70002943197020490D782A430A701A780240D8
:100A80001A70602219780A431A701C4B1C4A5A804B
:100A90005A78D209FCD11B48FFF7B2FB1A4D280047
:100AA000FFF7FAFD2800FFF709FE7F212B68C12020
:100AB0001A7880000A401A70042219780A430C211F
:100AC0001A701A898A4311491A810A581202120AA5
:100AD0000A5080220A6019787E3A0A431A7001236C
:100AE000237070BD610100206001002000040040FF
:100AF000584400413C44004159440041000C00402E
:100B000006400000DD140000F805002000E100E0D0
:100B10000078002810D00121084B1B681A898A43ED
:100B20001A810822198B0A431A830422198B0A435B
:100B30001A830022024B1A607047C046F805002055
:100B4000F005002010B50F4A93699B0B9B0393613E
:100B500013680222FF331A729879823A02439A711B
:100B60001A7A9207FCD57F24074A2140937A08001D
:100B7000A3431900802301439172917A5B420B4396
:100B8000937210BDF80500200050004110B50B799C
:100B90000C00002B0CD10800FFF7C8FC002801D086
:100BA000012010BD094A93699B0B9B039361F7E7F2
:100BB00001F0B4F8210001F0A0F80028F0D1034AB8
:100BC00093699B0B9B039361EBE7C046F8050020FC
:100BD000F7B50D00832A19D1CBB2404C5A01A218A7
:100BE00091693F48AD010840C021890501439161E9
:100BF0003C4920684D197021083355615B011A5C2E
:100C00008A43110040220A431A54F7BD022A3DD1FB
:100C1000382000F071FE344B8027036000232F4EF4
:100C20007F00421D036203614361C36146608560CA
:100C3000C760D3772F32C362036304001370380098
:100C4000537001F09DF90190A061380001F098F90E
:100C5000EBB25A01A062B2189168214808330840EB
:100C6000C021890501439160306807265B01195C4A
:100C7000AD00B1430E00032131431954019B200004
:100C80005360FFF789FD194BEC50BEE7822A1FD154
:100C9000CBB2124C5A01A21891691148AD0108401B
:100CA000C0218905014391610E4908334D19802106
:100CB000556122685B01D0180479494221430171D2
:100CC0007020995C814308003021014399549CE7CE
:100CD000002A9AD10800FFF79BFC96E7F805002050
:100CE000FFFFFF8F6C0100200C2100004401002059
:100CF00070B505000124064BA200D258002A05D089
:100D000021002800FFF764FF0134F4E770BDC046FE
:100D100058000020084B8A00D05810B5002803D096
:100D200003689B68984710BDC9B2044B4901591824
:100D300088688004800CF6E744010020F805002054
:100D400010B50C00FFF7E6FF00280CD0064BE4B20C
:100D50001B68083464011C19802362795B421343C9
:100D600063710223E37110BDF805002070B5134BC9
:100D7000CCB2134A60018901591813185960996857
:100D8000104D08340D408021890229434025996087
:100D90009968890B8903996011686301CB181E79E2
:100DA00035431D719D796D06FCD564010919CB7918
:100DB000DB07FCD512189068C0B270BD2C03002070
:100DC000F8050020FF3F00F070B5140040220B4BE7
:100DD0000D001B68FF3359790A435A710021FFF750
:100DE000C5FFA04200D9200000230549A34203D03B
:100DF0005A5CEA540133F9E770BDC046F80500209B
:100E00002C03002010B5C9B20B4849014218936861
:100E10009B049B0C3F2B0BDD9468403B9B04A40B75
:100E20009B0CA4032343936041188868C0B210BD93
:100E300093689B0B9B03F6E7F8050020F0B51C00B8
:100E4000304B85B01B6806000D000192002B55D079
:100E50002D4F3978C9B2002902D1192000F044FC85
:100E600064233B70294BAA00D058002808D003689F
:100E700022005B68019998470400200005B0F0BD8E
:100E800029003000FFF746FF844204D929003000D2
:100E9000FFF740FF040029003000FFF7B3FF0121F6
:100EA000EBB21B4F03935B010293029A3B680198DC
:100EB0009B18FF335A7A0A4316495A72AB01C91874
:100EC000220001F067F8002CD7D029003000FFF78E
:100ED00021FF0028D1D14021039B3A6808335B01F0
:100EE000D3181879014319710121D9710121029B8D
:100EF000D318FF339A7A0A439A72BEE701246442F8
:100F0000BBE7C046F005002060010020440100203E
:100F1000F80500202C03002013B56B46DC1D2200D1
:100F20000123FFF78BFF012801D1207816BD012096
:100F30004042FBE7F0B51E003A4B85B01B680F003E
:100F40000192002B3FD08023DB019E423BD8364CE0
:100F50002178C9B2002902D11A2000F0C5FB642310
:100F60000025324A2370BB01D3180293002E2CD0E7
:100F70002F4B1B680393FF233B401C000093083456
:100F8000039B64011C19A379DB0921D0294B2A4951
:100F9000186800F045FF294B1721584300F040FF27
:100FA000274BE279920713D4DA5D002A01D1013888
:100FB000F7D20122DA55009B5A011D4B9B189A6902
:100FC000920B92039A6101256D42280005B0F0BD95
:100FD00000221B4B3400DA553F2E00D93F2422005B
:100FE0000199029800F0D6FF009BA1045A01104B12
:100FF000890C9B18029A2D195A619A69361B920B1B
:1010000092030A439A61009B039A08335B01D31849
:101010000222DA715979823A0A435A71019B1B19EB
:101020000193A3E7F0050020610100206C0100207E
:10103000F80500208000002040420F0070110100E0
:101040006301002070B50D001C000D4EAB01F618B9
:1010500011003000220000F09DFFEDB209496D0142
:101060004D196E61AB69084A20001340AB61AB6952
:10107000A2049B0B920C9B031343AB6170BDC04653
:101080006C010020F8050020FF3F00F0F7B5104B81
:1010900001901B780F001500002B0CD10D4B160092
:1010A0001C78002C09D00C4E0C48348800196419A7
:1010B00000F070FF34802800FEBD002EFBD03A19EE
:1010C000330000210198FFF7BDFF2418361AF4E71A
:1010D000EC040020ED050020EE050020ED040020CA
:1010E000F8B5002000AF0E001500012A26DDD31D43
:1010F0006A46DB08DB00D31A9D46080000F0CCFFEF
:101100006C460323002101304000207063705A1E9A
:10111000D2B295420BDD3078002808D00136A054B9
:101120009D4203D0E1540233DBB2F0E72A002100F4
:101130000348FFF7ABFF431E9841C0B2BD46F8BD60
:1011400040010020F0B50027012687B01E4B00911A
:1011500002A91E7005000297FFF72AFC03AC01905C
:1011600009223900200000F01EFF0923237002230A
:1011700063709E33E3715A332372029B66710933A5
:1011800063806B461B7923710F4B1F70009B092BEB
:1011900007D11A0021002800FFF778FF012007B0CF
:1011A000F0BD0A4B09221E70094E2100280002974B
:1011B0003780FFF76BFF02A92800FFF7F9FB034B0D
:1011C00032881F700349E6E7EC040020ED0500209B
:1011D000EE050020ED04002070B5CE788AB0050041
:1011E0000C00022E08D1C9882148FFF7ABFF431E2F
:1011F0009841C0B20AB070BD00F090FD210000F02F
:101200005DFD002803D0C317181AC00FF2E7012EA6
:101210000BD1E2881749112A10DCD2B2002A0DD076
:101220002800FFF733FF0120E4E7032EE2D1A37883
:10123000002B05D1E2881049032AEEDD0A78EFE79A
:10124000022B05D1A2790D492800FFF749FFD1E70C
:10125000012B02D1A2790A49F6E7032BCAD100F08B
:101260005DFD01A900F03AFDA27901A9ECE7C046B5
:10127000400100203121000024210000182100003D
:101280002821000073B5060048780D000B2811D8FE
:1012900000F0BCFD061D102E104348704C4F696CC9
:1012A000097801AA002907D102231170517030007A
:1012B000FFF7C8FE012076BD0023137053702E4B3C
:1012C0001B78012B00D1137002230021EFE78A78ED
:1012D0000023012A04D101AA13705370274BEFE7B2
:1012E000254A1370264A93699B0B9B039361E1E7A0
:1012F0008C78012C06D10021204B01AA1C701170A2
:101300002300D4E7002C08D101201B4B1C4A187085
:1013100093699B0B9B039361CDE7A9783000FFF79E
:1013200011FCC7E73000FFF757FFC4E70123154A58
:10133000CBE70B780020DB06BDD13000FFF7D8FCEF
:101340002A200221AA780F4BFF301A600C4A13683A
:101350001C5C21434A241954FF34195D2938FF3895
:1013600001431955D4E70123074AAEE78A78064BB3
:101370001A60B7E700209EE7620100206A010020A2
:10138000F8050020F0050020F40500204B4BF7B5D0
:101390001C780700002C7CD1494E33689B8B1B07BF
:1013A0000DD52000FFF734F9326810231100FF310A
:1013B000887A03438B72434B1C6008239383336802
:1013C0009A8B52071FD504229A833F4A1378002B29
:1013D0000AD01378013BDBB213701378002B03D1D2
:1013E00001211A2000F080F9384A1378002B0AD026
:1013F0001378013BDBB213701378002B03D101216A
:10140000192000F071F93368FF331A7AD20620D51B
:1014100010221A72597930320A435A7160232C49CA
:1014200038000A781A4235D1FFF72CFF002834D053
:10143000802233685242FF3399790A439A713368A4
:10144000FF331A7A520604D540221A72597A0A4397
:101450005A72336800251C8C01239C43E4B201932B
:10146000E9B2002C15D023002B41019A13420DD074
:101470002B00326808335B01D318DA79D20713D412
:10148000DB799B0710D4019BAB409C430135092DB0
:10149000E6D1F7BDFFF77AFBC8E720220D4BCDE779
:1014A00003681B689847EEE70B4BAA00D05800284A
:1014B000F6D13800FFF792FAE5E7C046ED050020C7
:1014C000F8050020F00500206101002060010020E7
:1014D0002C030020FF5000414401002010B50248B9
:1014E000FFF754FF10BDC04640010020014A024BE7
:1014F0001A60704700500041F8050020FA21314B76
:1015000010B51868890000F08BFC2F4B0138984209
:1015100056D82E492E4A4860C020136A00061B0286
:101520001B0A03431362002407238C600B60802195
:10153000136A09061B021B0A0B431362FC22254B8C
:10154000196A0A431A62FC22196A92010A431A6252
:10155000A022196AD2020A431A6220000021013433
:1015600000F076F8142CF8D11B4B1C005A7852B2BC
:10157000002AFBDB194A5A80194B1A00597EC90907
:101580000129FBD0E421C90099803F21D970537E05
:10159000DB09012BFBD0C02300205B01136190709D
:1015A00000F024F863785BB2002BFBDB0D4B0E4A96
:1015B0006380D379DB09012BFBD04123537010BD2D
:1015C000FEE7C04680000020FFFFFF0010E000E0C3
:1015D00000ED00E000040040000C00401E40000050
:1015E000004000422140000000480042164A00B579
:1015F0001300517EC9090129FBD00138042816D8EF
:101600001969124A0A400F211A615A788A4300F078
:10161000FDFB0308060B0300110001220A435A7068
:1016200000BD11000322F9E711000222F6E7F023C2
:1016300011691B050B430F21136153788B4319006C
:1016400002230B435370EBE700400042FFFFFFF023
:10165000182330B51D00040045430820204A5519C1
:101660002856013014D0032912D808006343D156FC
:10167000D31800F0CBFB02280E1B5868CB010221C7
:10168000184A9B181A1840321170012282405A6081
:1016900030BD5868CB010621124A9B181A184032F7
:1016A0001170012282405A609A61F1E75868CB01BB
:1016B00006210C4A9B181A184032117001228240F0
:1016C0005A605A61E4E75868CB010221054A9B1829
:1016D0001A1840321170012282409A60D8E7C04641
:1016E00044210000004400411823F0B50824584369
:1016F000114A13181C5701341BD0012635005F68AE
:101700008356BD400D4ADB019A18906828420BD1E0
:101710000C00601E8441D2194032107834400336E8
:10172000A400B04320431070044A9B18002901D143
:101730005D61F0BD9D61FCE7442100000044004173
:10174000F8B50300182058432A4A1018007A40B20E
:101750000400013013D0481C00240C280FD800F0DE
:1017600055FB451C1C1C1C1C1C1C1C0707070700E8
:10177000092906D100211800FFF76AFF0024200084
:10178000F8BD0A2901D10839F5E700240B29F6D163
:101790000A391800FFF75CFFF1E718204343D0181F
:1017A000466801253400D2561348D2011218730836
:1017B000D31830332C401878002C0BD00F2409019B
:1017C00020400143C9B292191970403213781D4369
:1017D0001570D3E70F27B84301439219C9B21970A6
:1017E000130040331A7815431D70C8E70124644282
:1017F000C5E7C0464421000000440041F7B507009A
:101800000E000724012501920093019B002B15D1A6
:10181000290007331B1B9940009B380019404B1EC1
:101820009941FFF761FF29003000FFF75DFF0021BC
:101830003000FFF759FF013CE7D2F7BD2900A14076
:10184000EAE7000010B5024800F0A0F910BDC0465C
:10185000FC06002010B5024800F098F910BDC04603
:10186000C0070020F7B501240326154F154938009D
:1018700000F046F81449154800F042F8144915489C
:1018800000F03EF81449154800F03AF8144915489C
:1018900000F036F8144D1549280000F031F83900F1
:1018A0000096230001940022114800F049F90096A7
:1018B000290001941E231F220E4800F041F9F7BDB4
:1018C0008408002000080042000C00428808002024
:1018D000001000428C0800200014004290080020F4
:1018E000001800429408002098080020001C0042C4
:1018F000FC060020C007002010B500F041FB10BD21
:1019000001607047F0B505AC25780468981E471E45
:10191000B84126689207000632430243072022603E
:101920000140AD01626829430020022B00D058031A
:10193000114301436160F0BD10B5C0240368A403E6
:101940001868120522400243C020090480020140A9
:10195000114319605A681043586010BD0122036892
:1019600019680A431A601A68D207FCD4DA69D207E8
:10197000F9D470470222036819680A431A60DA69C9
:101980009207FCD4704703681A7ED20702D41A7EED
:101990009207FCD57047002203685A83704703689A
:1019A000187E4007C00F70470368187EC009704753
:1019B000802302685B42117E0B43137670470368F5
:1019C000188DC0B2704703681A7ED207FCD589B261
:1019D00001201985704700000368214A30B5934201
:1019E00011D0204A93422FD01F4A93422FD01F4A32
:1019F00093422FD01E4A93422FD01E4A934222D1A7
:101A00000E23192201E00923142201210325994004
:101A10001948C024016099082B40AB40FC359D401B
:101A200089000918A4000859A843C0259D402B002F
:101A300003430B518023DB011A43104B5A805A7821
:101A400052B2002AFBDB30BD0A231522DDE70B234F
:101A50001622DAE70C231722D7E70D231822D4E742
:101A600000080042000C0042001000420014004236
:101A700000180042001C004200E100E0000C0040A1
:101A8000F8B5040016000F001D00FFF7A5FF2000A9
:101A9000FFF764FF1C22BB00134072072468120C7E
:101AA000134323608423A375012F18D11021012E25
:101AB00000D008390A4B69431868C00000F0B0F93B
:101AC0000722A3890240DB045203DB0C1343A381EA
:101AD0000304A089DB0C400B40031843A081F8BD30
:101AE000800000200120704710B50368014ADB69BF
:101AF000984710BD1304000010B504000069FFF7FB
:101B00002DFF2000143000F04EF910BD10B5006913
:101B1000FFF739FF10BD10B5143000F05FF910BDAC
:101B200010B5143000F064F910BD10B5143000F099
:101B300041F910BD10B50069FFF745FF012010BD48
:101B4000F7B51D0008AB1B780400009309AB1B78A8
:101B50001600019300234360FA239B0083600A4B25
:101B60000F0008330360143000F0FEF86A462300CB
:101B70001278C03327619A706A4612791E705D70C0
:101B80002000DA70FEBDC0469425000010B50400A8
:101B90000069FFF704FF002807D02069FFF70FFF57
:101BA00001002000143000F0ECF82069FFF7FCFE83
:101BB000002805D02069FFF7FBFE2069FFF7EBFE48
:101BC00010BDF02001403039484248417047F023B1
:101BD0001B011940802306209B0099420AD0013343
:101BE000FF330130994205D0802302385B009942CF
:101BF00000D0002070470F2001400020012903D0B1
:101C00000239481E8141481C704700000300F0B5AE
:101C1000182685B00391C0330400187833000821DA
:101C200043431B4D1700EB185956FFF789FD23005E
:101C30000821C13318784643AD196956FFF780FD76
:101C40000122039B11002069FFF71AFF39002000D1
:101C5000FFF7BDFF390005002000FFF7CCFF39007A
:101C600006002000FFF7ADFF330000902900206937
:101C70000122FFF747FE2300C2331A785978206902
:101C8000FFF75AFE2069FFF775FE05B0F0BDC046AC
:101C90004421000070B50E0000254468002C0BD0D4
:101CA000236831005B6820009847002802DB2D186C
:101CB000E468F3E701256D42280070BD70B50D00A2
:101CC0004468002C08D0236829009B6820009847AE
:101CD000002802D1E468F4E7200070BD70B50D0063
:101CE0004468002C07D0236829002000DB6898474F
:101CF000E4682D18F5E72C7070BD70B50D004468D0
:101D0000002C08D0236829001B6820009847002871
:101D100002D1E468F4E7200070BD00000121064A0A
:101D200010B5136805480B4005D10224047024192E
:101D300044704360116010BD9C080020A008002082
:101D4000F7B506000D000C008B180193019B671B73
:101D50009C4207D0336821781B68300098470134D3
:101D60000028F3D13800FEBD10B50400A4220021E4
:101D700000F019F922000023A43220001360536000
:101D800010BDF8B505000400A4352E680F00701CC6
:101D9000A42100F0CBF82300A8331B688B4201D0AC
:101DA000A7552960F8BD02000023A432A8301360B3
:101DB0000360704770B502000500A432A8352B6897
:101DC0001268934207D0C45CA421581C00F0AEF8FE
:101DD0002000296070BD01204042FBE702000300A3
:101DE000A432A83310681B68C01A00D5A43070470D
:101DF00003000200A833A4321B681268934201D08A
:101E0000C05C704701204042FBE7000002B471460D
:101E100049084900095C49008E4402BC7047C0462D
:101E2000002243088B4274D303098B425FD3030A19
:101E30008B4244D3030B8B4228D3030C8B420DD32C
:101E4000FF22090212BA030C8B4202D312120902BA
:101E500065D0030B8B4219D300E0090AC30B8B42F8
:101E600001D3CB03C01A5241830B8B4201D38B03A6
:101E7000C01A5241430B8B4201D34B03C01A52414B
:101E8000030B8B4201D30B03C01A5241C30A8B428E
:101E900001D3CB02C01A5241830A8B4201D38B0279
:101EA000C01A5241430A8B4201D34B02C01A52411D
:101EB000030A8B4201D30B02C01A5241CDD2C3098F
:101EC0008B4201D3CB01C01A524183098B4201D30B
:101ED0008B01C01A524143098B4201D34B01C01AF6
:101EE000524103098B4201D30B01C01A5241C3086E
:101EF0008B4201D3CB00C01A524183088B4201D3DD
:101F00008B00C01A524143088B4201D34B00C01AC8
:101F10005241411A00D20146524110467047FFE734
:101F200001B5002000F006F802BDC0460029F7D038
:101F300076E770477047C04670B500260C4D0D4CD3
:101F4000641BA410A64209D1002600F0BDF80A4D7A
:101F50000A4C641BA410A64205D170BDB300EB5817
:101F600098470136EEE7B300EB5898470136F2E7A1
:101F7000E8000020E8000020E8000020F800002031
:101F800010B5034B0100186800F016F810BDC046EC
:101F900084000020002310B59A4200D110BDCC5C13
:101FA000C4540133F8E703008218934200D170470C
:101FB00019700133F9E70000032370B5CD1C9D4370
:101FC000083506000C2D1ED20C25A9421DD8300064
:101FD00000F069F8254A14682100002919D1244C21
:101FE0002368002B03D1300000F044F82060290062
:101FF000300000F03FF8431C2CD10C23300033603C
:1020000000F052F803E0002DDFDA0C2333600020EB
:1020100070BD0B685B1B1AD40B2B03D90B60CC185B
:10202000256003E08C420ED163681360300000F03D
:102030003BF8200007220B30231D9043C31AE7D042
:102040005A42E250E4E74B6863600C00EEE70C0094
:102050004968C2E70323C41C9C43A042E0D0211A74
:10206000300000F007F8431CDAD1C6E7A8080020CA
:10207000AC080020002370B5064C05000800236062
:1020800000F014F8431C03D12368002B00D02B6010
:1020900070BDC046B40800200023C25C0133002A92
:1020A000FBD1581E7047704770470000044A136800
:1020B000002B03D01818106018007047014BF9E787
:1020C000B0080020B8080020F8B5C046F8BC08BC2D
:1020D0009E467047F8B5C046F8BC08BC9E4670479F
:1020E000000000000000000089040000B5040000AA
:1020F0009D040000ED040000D1040000A9040000CC
:10210000850400000000000000000000FB08000043
:10211000DD070000390700004665617468657220BC
:102120004D300000040309044164616672756974EE
:102130000012010002EF0201409A230B800001010E
:1021400002030100000000000B000000020000007C
:1021500004000000FF00FFFFFFFF0B000000000075
:102160000A0000000200000004000000FF00FFFF62
:10217000FFFF0A00000000000E0000000800000041
:1021800004000000FF00FFFFFFFF0E000000000042
:1021900009000000040000001C000000FF00010016
:1021A0000100090000000000080000000400000019
:1021B0001C000000FF0000000000100000000000F4
:1021C0000F000000040000001C000000FF000103DD
:1021D00001030F00000000001400000005000000D3
:1021E0002C000000FF0002000200040000000000BC
:1021F000150000000800000004000000FF00FFFFC1
:10220000FFFF0500000000000600000004000000C1
:102210001C00000006000001000106000000000094
:1022200007000000040000001C000000070001017E
:10223000010107000000000012000000040000007F
:102240001C000000FF00000300030200000000006B
:1022500010000000040000001C000000FF0000024D
:102260000002000000000000130000000500000054
:102270002C000000FF00030003000300000000002A
:1022800011000000040000001C000000FF0001021B
:102290000102010000000000020000000100000037
:1022A000020000000000FFFFFFFF0200010000002D
:1022B00008000000010000001800000002000004F7
:1022C00000040800010000000900000001000000F7
:1022D00018000000030001040104090000000000D0
:1022E0000400000001000000000000000400FFFFE7
:1022F000FFFF0400000000000500000001000000D6
:10230000000000000500FFFFFFFF050001000000C6
:102310000200000001000000000000000A00FFFFB2
:10232000FFFF020000000000160000000200000095
:1023300004000000FF00FFFFFFFF06000000000098
:10234000170000000200000004000000FF00FFFF73
:10235000FFFF0700000000000C0000000300000069
:1023600004000000FF00FFFFFFFF0C000100000061
:102370000A0000000300000004000000FF00FFFF4F
:10238000FFFF0A00010000000B0000000300000036
:1023900004000000FF00FFFFFFFF0B000100000032
:1023A000030000000B00000004000000FF00FFFF1E
:1023B000FFFFFF00000000001B0000000B000000FA
:1023C00004000000FF00FFFFFFFFFF00000000000F
:1023D0001C0000000600000000000000FF00FFFFDE
:1023E000FFFFFF00000000001800000006000000D2
:1023F00000000000FF00FFFFFFFFFF0000000000E3
:10240000190000000600000000000000FF00FFFFB0
:10241000FFFFFF00010000001600000003000000A5
:1024200000000000FF00FFFFFFFFFF0001000000B1
:10243000170000000300000000000000FF00FFFF85
:10244000FFFFFF0000000000160000000200000077
:1024500000000000FF00FFFFFFFFFF000000000082
:10246000170000000200000000000000FF00FFFF56
:10247000FFFFFF000000000013000000020000004A
:1024800000000000FF00FFFFFFFFFF000000000052
:10249000100000000200000000000000FF00FFFF2D
:1024A000FFFFFF000000000012000000020000001B
:1024B00000000000FF00FFFFFFFFFF000000000022
:1024C000110000000200000000000000FF00FFFFFC
:1024D000FFFFFF00000000000D00000004000000EE
:1024E0000C000000FF000100FFFF0D0000000000D5
:1024F00015000000050000000C000000FF000300B4
:10250000FFFFFF00000000000600000004000000C4
:102510000C000000FF000001FFFFFF0000000000B2
:1025200007000000040000000C000000FF00010193
:10253000FFFFFF000000000003000000010000009A
:1025400002000000FF00FFFFFFFFFF00000000008F
:102550000200000001000000020000001400FFFF64
:10256000FFFF020000000000060000000100000064
:10257000020000000600000100010600000000004B
:102580000700000001000000020000000700010138
:10259000010107000000000000000000351B0000E2
:1025A000411D0000171B00002B1B0000211B000019
:1025B0000D1B0000E91A00000D1C0000F91A0000B4
:0825C000E51A00000000000014
:1025C800FFFFFFFFFFFFFFFF00C201000000080040
:1025D800080B0002020200000904000001020200C8
:1025E8000005240010010424020605240600010544
:1025F80024010101070581031000100904010002EC
:102608000A00000007050202400000070583024097
:1026180000000000FFFFFFFF000000008300000033
:10262800020000008200000000000000000000001E
:102638000000000000000000000000000000000092
:1026480040420F0088000020000000000000000049
:102658000000000000000000000000000000000072
:102668000000000000000000000000000000000062
:102678000000000000000000000000000000000052
:102688000000000000000000000000000000000042
:102698000000000000000000000000000000000032
:1026A8000000000000000000DD000000E905000057
:1026B800ED14000065180000B500000000000000DF
:040000030000019D5B
:00000001FF
